:020000040800F2
:1000000000000520E93900086D3900086F39000843
:1000100071390008733900087539000800000000C4
:100020000000000000000000000000007739000818
:1000300079390008000000007B3900087D3900088C
:10004000393A0008393A0008393A0008393A0008C4
:10005000393A0008393A0008393A0008393A0008B4
:10006000393A0008393A0008393A0008393A0008A4
:10007000393A0008393A0008393A0008393A000894
:10008000393A0008393A0008393A0008393A000884
:10009000393A0008393A0008393A0008393A000874
:1000A000393A0008393A0008393A0008393A000864
:1000B000393A000889390008393A0008393A000805
:1000C000393A0008393A0008393A0008393A000844
:1000D000393A0008393A0008393A0008393A000834
:1000E000393A0008393A0008393A0008393A000824
:1000F000393A0008393A0008393A0008393A000814
:10010000393A0008393A0008393A0008393A000803
:10011000393A0008393A0008393A0008393A0008F3
:10012000393A0008393A0008393A0008393A0008E3
:10013000393A0008393A0008393A0008393A0008D3
:10014000393A0008393A0008393A0008393A0008C3
:10015000393A0008393A0008393A0008393A0008B3
:10016000393A0008393A0008393A0008393A0008A3
:10017000393A0008393A0008393A0008000000000E
:10018000393A0008393A0008393A0008393A000883
:10019000393A0008393A0008393A0008393A000873
:1001A000393A0008393A0008393A0008393A000863
:1001B000393A0008393A0008393A0008393A000853
:0801C000393A0008393A000841
:1001D00010B5054C237833B9044B13B10448AFF381
:1001E00000800123237010BD780000200000000073
:1001F000A842000808B5034B1BB103490348AFF3FD
:10020000008008BD000000007C000020A84200081B
:1002100081F0004102E000BF83F0004330B54FEAB7
:1002200041044FEA430594EA050F08BF90EA020F24
:100230001FBF54EA000C55EA020C7FEA645C7FEAB7
:10024000655C00F0E2804FEA5454D4EB5555B8BFDA
:100250006D420CDD2C4480EA020281EA030382EA4B
:10026000000083EA010180EA020281EA0303362DDD
:1002700088BF30BD11F0004F4FEA01314FF4801CB0
:100280004CEA113102D0404261EB410113F0004FC2
:100290004FEA03334CEA133302D0524263EB430379
:1002A00094EA050F00F0A780A4F10104D5F1200E17
:1002B0000DDB02FA0EFC22FA05F2801841F1000172
:1002C00003FA0EF2801843FA05F359410EE0A5F146
:1002D00020050EF1200E012A03FA0EFC28BF4CF077
:1002E000020C43FA05F3C01851EBE37101F000452D
:1002F00007D54FF0000EDCF1000C7EEB00006EEB3A
:100300000101B1F5801F1BD3B1F5001F0CD34908C3
:100310005FEA30004FEA3C0C04F101044FEA44521A
:1003200012F5800F80F09A80BCF1004F08BF5FEAA1
:10033000500C50F1000041EB045141EA050130BD81
:100340005FEA4C0C404141EB010111F4801FA4F124
:100350000104E9D191F0000F04BF01460020B1FA79
:1003600081F308BF2033A3F10B03B3F120020CDAB1
:100370000C3208DD02F1140CC2F10C0201FA0CF08F
:1003800021FA02F10CE002F11402D8BFC2F1200CF4
:1003900001FA02F120FA0CFCDCBF41EA0C019040AA
:1003A000E41AA2BF01EB0451294330BD6FEA0404F3
:1003B0001F3C1CDA0C340EDC04F11404C4F12002DE
:1003C00020FA04F001FA02F340EA030021FA04F3F0
:1003D00045EA030130BDC4F10C04C4F1200220FA47
:1003E00002F001FA04F340EA0300294630BD21FA85
:1003F00004F0294630BD94F0000F83F4801306BF4B
:1004000081F480110134013D4EE77FEA645C18BF3E
:100410007FEA655C29D094EA050F08BF90EA020FD5
:1004200005D054EA000C04BF1946104630BD91EACD
:10043000030F1EBF0021002030BD5FEA545C05D1D0
:100440004000494128BF41F0004130BD14F580040F
:100450003CBF01F5801130BD01F0004545F0FE4183
:1004600041F470014FF0000030BD7FEA645C1ABFB8
:10047000194610467FEA655C1CBF0B46024650EAEF
:10048000013406BF52EA033591EA030F41F400211B
:1004900030BD00BF90F0000F04BF0021704730B5A1
:1004A0004FF4806404F132044FF000054FF0000176
:1004B00050E700BF90F0000F04BF0021704730B537
:1004C0004FF4806404F1320410F0004548BF40420C
:1004D0004FF000013EE700BF42004FEAE2014FEA61
:1004E00031014FEA02701FBF12F07F4393F07F4F3C
:1004F00081F06051704732F07F4208BF704793F03F
:100500007F4F04BF41F40021704730B54FF4607451
:1005100001F0004521F000411CE700BF50EA010254
:1005200008BF704730B54FF000050AE050EA0102FD
:1005300008BF704730B511F0004502D5404261EB6D
:1005400041014FF4806404F132045FEA915C3FF4AE
:10055000D8AE4FF003025FEADC0C18BF03325FEA4B
:10056000DC0C18BF033202EBDC02C2F1200300FAFC
:1005700003FC20FA02F001FA03FE40EA0E0021FA21
:1005800002F11444BDE600BF70B54FF0FF0C4CF40F
:10059000E06C1CEA11541DBF1CEA135594EA0C0FC1
:1005A00095EA0C0F00F0DEF82C4481EA030621EAFC
:1005B0004C5123EA4C5350EA013518BF52EA033537
:1005C00041F4801143F4801338D0A0FB02CE4FF0E9
:1005D0000005E1FB02E506F00042E0FB03E54FF019
:1005E0000006E1FB03569CF0000F18BF4EF0010E11
:1005F000A4F1FF04B6F5007F64F5407404D25FEA0D
:100600004E0E6D4146EB060642EAC62141EA5551BF
:100610004FEAC52040EA5E504FEACE2EB4F1FD0C01
:1006200088BFBCF5E06F1ED8BEF1004F08BF5FEA7F
:10063000500E50F1000041EB045170BD06F0004631
:1006400046EA010140EA020081EA0301B4EB5C04DE
:10065000C2BFD4EB0C0541EA045170BD41F48011D6
:100660004FF0000E013C00F3AB8014F1360FDEBFFB
:10067000002001F0004170BDC4F10004203C35DAD7
:100680000C341BDC04F11404C4F1200500FA05F35A
:1006900020FA04F001FA05F240EA020001F00042FB
:1006A00021F0004110EBD37021FA04F642EB060171
:1006B0005EEA430E08BF20EAD37070BDC4F10C049B
:1006C000C4F1200500FA04F320FA05F001FA04F25F
:1006D00040EA020001F0004110EBD37041F100014B
:1006E0005EEA430E08BF20EAD37070BDC4F1200556
:1006F00000FA05F24EEA020E20FA04F301FA05F2BE
:1007000043EA020321FA04F001F0004121FA04F265
:1007100020EA020000EBD3705EEA430E08BF20EA35
:10072000D37070BD94F0000F0FD101F0004640006F
:1007300041EB010111F4801F08BF013CF7D041EAF1
:10074000060195F0000F18BF704703F000465200F5
:1007500043EB030313F4801F08BF013DF7D043EAC6
:100760000603704794EA0C0F0CEA135518BF95EA7C
:100770000C0F0CD050EA410618BF52EA4306D1D103
:1007800081EA030101F000414FF0000070BD50EA22
:10079000410606BF1046194652EA430619D094EAAC
:1007A0000C0F02D150EA013613D195EA0C0F05D196
:1007B00052EA03361CBF104619460AD181EA0301EA
:1007C00001F0004141F0FE4141F470014FF00000A2
:1007D00070BD41F0FE4141F4780170BD70B54FF03D
:1007E000FF0C4CF4E06C1CEA11541DBF1CEA1355BD
:1007F00094EA0C0F95EA0C0F00F0A7F8A4EB05049F
:1008000081EA030E52EA03354FEA013100F0888095
:100810004FEA03334FF0805545EA131343EA12635E
:100820004FEA022245EA111545EA10654FEA002613
:100830000EF000419D4208BF964244F1FD0404F5CC
:10084000407402D25B084FEA3202B61A65EB030528
:100850005B084FEA32024FF480104FF4002CB6EBE5
:10086000020E75EB030E22BFB61A754640EA0C0065
:100870005B084FEA3202B6EB020E75EB030E22BFA5
:10088000B61A754640EA5C005B084FEA3202B6EBE6
:10089000020E75EB030E22BFB61A754640EA9C00A5
:1008A0005B084FEA3202B6EB020E75EB030E22BF75
:1008B000B61A754640EADC0055EA060E18D04FEA33
:1008C000051545EA16754FEA06164FEAC30343EAD3
:1008D00052734FEAC2025FEA1C1CC0D111F4801FA0
:1008E0000BD141EA00014FF000004FF0004CB6E799
:1008F00011F4801F04BF01430020B4F1FD0C88BF38
:10090000BCF5E06F3FF6AFAEB5EB030C04BFB6EB42
:10091000020C5FEA500C50F1000041EB045170BD35
:100920000EF0004E4EEA113114EB5C04C2BFD4EB62
:100930000C0541EA045170BD41F480114FF0000EE6
:10094000013C90E645EA060E8DE60CEA135594EA62
:100950000C0F08BF95EA0C0F3FF43BAF94EA0C0F65
:100960000AD150EA01347FF434AF95EA0C0F7FF4DA
:1009700025AF104619462CE795EA0C0F06D152EA2E
:1009800003353FF4FDAE1046194622E750EA410612
:1009900018BF52EA43067FF4C5AE50EA41047FF423
:1009A0000DAF52EA43057FF4EBAE12E74FEA410286
:1009B000B2F1E04324BFB3F5001CDCF1FE5C0DD9BD
:1009C00001F0004C4FEAC0024CEA5070B2F1004F07
:1009D00040EB830008BF20F00100704711F0804F0A
:1009E00021D113F13872BCBF01F00040704741F4CF
:1009F00080114FEA5252C2F11802C2F1200C10FAD3
:100A00000CF320FA02F018BF40F001004FEAC123B6
:100A10004FEAD32303FA0CFC40EA0C0023FA02F35A
:100A20004FEA4303CCE77FEA625307D150EA013330
:100A30001EBF4FF0FE4040F44000704701F0004000
:100A400040F0FE4040F40000704700BF53B94AB97F
:100A5000002908BF00281CBF4FF0FF314FF0FF30C6
:100A600000F072B9ADF1080C6DE904CE00F006F8A3
:100A7000DDF804E0DDE9022304B070472DE9F0471A
:100A8000089E04468846002B4BD18A42154667D9FA
:100A9000B2FA82F24AB1C2F1200701FA02F320FA57
:100AA00007F7954047EA030894404FEA154E230C98
:100AB000B8FBFEF71FFA85FC0EFB178843EA0843D4
:100AC00007FB0CF1994209D9EB1807F1FF3080F0D0
:100AD0001B81994240F21881023F2B445B1AA4B259
:100AE000B3FBFEF00EFB103344EA034400FB0CFCA6
:100AF000A44509D92C1900F1FF3380F00781A445E2
:100B000040F2048102382C4440EA0740A4EB0C0474
:100B100000271EB1D4400023C6E900433946BDE892
:100B2000F0878B4209D9002E00F0EB800027C6E940
:100B3000000138463946BDE8F087B3FA83F7002F45
:100B400047D18B4202D3824200F2FA80841A61EBD1
:100B5000030301209846002EE0D0C6E90048DDE7F7
:100B600002B9FFDEB2FA82F2002A40F08F80491B00
:100B70004FEA154E1FFA85F80127B1FBFEFC230C46
:100B80000EFB1C1143EA014308FB0CF1994207D903
:100B9000EB180CF1FF3002D2994200F2CD8084466E
:100BA000591AA3B2B1FBFEF00EFB101443EA044441
:100BB00008FB00F8A04507D92C1900F1FF3302D239
:100BC000A04500F2B6801846A4EB080440EA0C40A9
:100BD0009FE7C7F1200CBB4022FA0CFE4EEA030E41
:100BE00001FA07F420FA0CF521FA0CF34FEA1E483B
:100BF0002543B3FBF8F92C0C08FB19331FFA8EFAC6
:100C000044EA034309FB0AF49C4202FA07F200FAA1
:100C100007F10BD91EEB030309F1FF3080F0878049
:100C20009C4240F28480A9F1020973441B1BADB2BF
:100C3000B3FBF8F008FB103345EA034400FB0AFA63
:100C4000A24508D91EEB040400F1FF336BD2A24584
:100C500069D90238744440EA0940A0FB0289A4EB38
:100C60000A044C45C2464B4654D351D0002E69D09D
:100C7000B1EB0A0564EB030404FA0CFCFD40FC40F4
:100C80004CEA0505C6E90054002747E7C2F12003F6
:100C900020FA03F7954001FA02F021FA03F34FEA34
:100CA000154E3843010CB3FBFEF71FFA85F80EFB17
:100CB000173341EA034107FB08F38B4204FA02F4BD
:100CC00007D9691807F1FF3C2FD28B422DD9023F7B
:100CD0002944CB1A81B2B3FBFEF00EFB103341EA7C
:100CE000034100FB08F38B4207D9691800F1FF3C70
:100CF00017D28B4215D902382944C91A40EA07474E
:100D00003BE73746304609E70746E7E61846FBE685
:100D10004145ABD2B8EB020A69EB0E02013813462B
:100D2000A4E76046E9E7184695E76746D1E78146BC
:100D30007CE702382C4447E7ACF1020C2B442FE748
:100D4000384608E73746E9E6704700BF0000000074
:100D500001F0FF01102A2BDB10F0070F08D010F86C
:100D6000013B013A8B422DD010F0070F42B3F6D170
:100D7000F0B441EA012141EA014122F007047FF089
:100D800000070023F0E80256083C85EA010586EAE0
:100D9000010685FA47F5A3FA87F586FA47F6A5FA1C
:100DA00087F68EB9EED1F0BC01F0FF0102F0070228
:100DB00032B110F8013B013A83EA010313B1F8D1D3
:100DC0000020704701387047002D06BF35460338B4
:100DD000073815F0010F07D1013015F4807F02BFED
:100DE000013015F4C03F0130F0BC0138704700BF3E
:100DF00010B504460E4B18784FF47A73B3FBF0F33A
:100E00000C4A1068B0FBF3F000F098F868B90F2CAA
:100E100001D901200AE0002221464FF0FF3000F006
:100E20004FF8034B5C60002000E0012010BD00BFC4
:100E3000000000200C00002008B5032000F02EF870
:100E40000020FFF7D5FF02F0D7FC002008BD00000E
:100E5000034A1168034B1B780B441360704700BFB3
:100E6000D400002000000020014B1868704700BF2C
:100E7000D400002038B50446FFF7F6FF0546B4F16C
:100E8000FF3F02D0044B1B781C44FFF7EDFF401BD3
:100E9000A042FAD338BD00BF000000200649CB684D
:100EA00023F4E0631B041B0C000200F4E060034326
:100EB000024A1A43CA60704700ED00E00000FA05DC
:100EC00030B4154BDB68C3F30223C3F10704042CD1
:100ED00028BF04241D1D062D14D9033B4FF0FF35F8
:100EE00005FA04F421EA0401994005FA03F322EA21
:100EF00003031943002807DB0901C9B2074B195442
:100F000030BC70470023E9E700F00F000901C9B2C7
:100F1000034B1954F4E700BF00ED00E000E400E0EB
:100F200014ED00E000F01F02400901239340024A43
:100F300042F82030704700BF00E100E00138B0F116
:100F4000807F0AD2064B5860064AF02182F82310AF
:100F50000020986007221A6070470120704700BF88
:100F600010E000E000ED00E0042805D0054A136819
:100F700023F0040313607047024A136843F004032C
:100F80001360704710E000E0704708B5FFF7FCFF02
:100F900008BD000000230F2B00F2E280F0B482B005
:100FA00039E0092200E00022B2403A4302346D4E9B
:100FB00046F824206C4A1468EA4302EA04064F68A3
:100FC00017F4803F01D045EA0406674C2660646848
:100FD00002EA04064F6817F4003F01D045EA040610
:100FE000614C6660A46802EA04064F6817F4801F2B
:100FF00001D045EA04065C4CA660E46822404E68D5
:1010000016F4001F01D045EA0402574CE260013398
:101010000F2B00F2A28001229A400C6804EA02051C
:10102000AA42F4D14C68122C18BF022C10D1DE0851
:10103000083650F826C003F00704A7000F24BC4070
:101040002CEA040C0C69BC4044EA0C0440F826402D
:1010500004685F000326BE40F64306EA040C4C68B1
:1010600004F00304BC4044EA0C0404604C6804F13E
:10107000FF3C112C18BFBCF1010F01D9122C11D16A
:10108000846806EA040CCC68BC4044EA0C04846022
:10109000446824EA020C4C68C4F300129A4042EA05
:1010A0000C024260C26816408A68BA403243C2608D
:1010B0004A6812F0805FAAD02C4A546C44F48044F1
:1010C0005464526C02F480420192019A9C08A61C5E
:1010D000244A52F8267003F0030296000F22B24011
:1010E00027EA0207224A90423FF45DAF02F5806290
:1010F000904222D002F58062904220D002F58062B8
:1011000090421ED002F5806290421CD002F58062AF
:1011100090421AD002F58062904218D002F58062A7
:10112000904216D002F58062904214D002F580629F
:1011300090423FF436AF0A2236E7012234E702221A
:1011400032E7032230E704222EE705222CE70622AD
:101150002AE7072228E7082226E702B0F0BC7047FA
:10116000704700BF00380140003C01400038024099
:101170000000024012B90904816170478161704723
:1011800003689A6912F0020F01D000229A62036884
:101190009A6912F0010F03D19A6942F001029A6133
:1011A000704770B4039E05686868740D04F4806429
:1011B00044F07F7444F4583444F47F7444F00304DE
:1011C00020EA0400C1F3090141EA02411943314315
:1011D0000143696070BC704770B504460D46164601
:1011E00003689B6913F0100F17D023689A6912F0F7
:1011F000200F14D1B5F1FF3FF7D025B1FFF734FE32
:10120000801BA842F1D9202384F84130002384F8C0
:10121000423084F8403003201EE000201CE0102201
:10122000DA6123682025DD612046FFF7A9FF2268E7
:10123000536823F0FF7323F48B3323F4FF7323F0FD
:10124000010353600423636484F84150002384F84D
:10125000423084F84030012070BD70B504460D4620
:10126000164623689B6913F0020F1CD132462946AB
:101270002046FFF7B1FFC0B9B5F1FF3FF1D025B16E
:10128000FFF7F2FD801BA842EBD9636C43F020030B
:101290006364202384F84130002384F8423084F8CA
:1012A0004030032000E0002070BD0120FCE7F8B5CD
:1012B00005460F4616461C462B689B6937EA030312
:1012C0000CBF01230023B34213D1B4F1FF3FF3D08D
:1012D0002CB1FFF7C9FD069BC01AA042ECD9202310
:1012E00085F84130002385F8423085F840300320EE
:1012F00000E00020F8BD70B505460C4616462B6888
:101300009B6913F0200F19D1324621462846FFF77A
:1013100063FFA8B924B1FFF7A7FD801BA042EED957
:101320006B6C43F020036B64202385F8413000236D
:1013300085F8423085F84030032070BD0020FCE77E
:101340000120FAE770B504460D46164623689B69EE
:1013500013F0040F3DD1324629462046FFF73CFFEB
:101360000146002837D123689A6912F0200F12D164
:1013700025B1FFF779FD801BA842E7D9636C43F0E4
:1013800020036364202384F84130002384F8403034
:101390000321084670BD9A6912F0040F02D0228D15
:1013A000002AF6D12022DA6121684B6823F0FF730E
:1013B00023F48B3323F4FF7323F001034B600023EA
:1013C000636484F8412084F8423084F8403001217D
:1013D000DFE70021DDE70121DBE70000002857D02F
:1013E00010B5044690F84130002B41D0242384F8F6
:1013F00041302268136823F0010313606368226898
:1014000023F0706313612268936823F400439360B0
:10141000E368012B31D0A368226843F4044393604E
:10142000E368022B2FD0226851681A4B0B4353609C
:101430002268D36823F40043D360236962691343AD
:10144000A169226843EA0123D360E369216A226823
:101450000B4313602268136843F0010313600020FC
:101460006064202384F84130206384F8420010BD7A
:1014700080F8403002F008FAB8E7A368226843F425
:1014800000439360CCE723684FF400625A60CAE7D8
:1014900001207047008000022DE9F04383B090F8EE
:1014A0004150EDB2202D40F0AD8090F84040012C2D
:1014B00000F0AD80984617460E4604464FF00109ED
:1014C00080F84090FFF7D0FC0546009019234A466B
:1014D0004FF400412046FFF7EAFE002840F09980D3
:1014E000212384F84130102384F8423000236364C0
:1014F0006762A4F82A806363638D9BB2FF2B0AD9CD
:10150000FF222285474B00934FF0807331462046DF
:10151000FFF747FE1DE0628D92B22285414B00939A
:101520004FF00073D2B231462046FFF73AFE10E08A
:10153000636C042B6FD1012365E0628D92B222852A
:10154000002300934FF00073D2B231462046FFF7DC
:1015500028FE638D9BB2002B32D02A460A99204682
:10156000FFF77BFE0028E3D1636A5A1C626222689F
:101570001B789362638D013B9BB26385238D013B96
:101580009BB22385002BE4D1638D9BB2002BE0D06E
:1015900000950A9B002280212046FFF788FE002844
:1015A0003BD1638D9BB2FF2BC7D9FF22228500233D
:1015B00000934FF0807331462046FFF7F2FDC8E7F5
:1015C0002A460A992046FFF796FE034620B1636C2F
:1015D000042B24D1012316E022682021D161206848
:1015E000426822F0FF7222F48B3222F4FF7222F062
:1015F0000102426084F84110002284F8422084F8FD
:10160000402000E00223184603B0BDE8F083022327
:10161000F9E70323F7E70323F5E70323F3E70323BE
:10162000F1E700BF002000802DE9F04383B090F87F
:101630004150EDB2202D40F0AD8090F84040012C9B
:1016400000F0AD80984617460E4604464FF001095B
:1016500080F84090FFF708FC0546009019234A46A1
:101660004FF400412046FFF722FE002840F0998009
:10167000222384F84130102384F84230002363642D
:101680006762A4F82A806363638D9BB2FF2B0AD93B
:10169000FF222285474B00934FF08073314620464E
:1016A000FFF77FFD1DE0628D92B22285414B0093D2
:1016B0004FF00073D2B231462046FFF772FD10E0C2
:1016C000636C042B6FD1012365E0628D92B2228599
:1016D000002300934FF00073D2B231462046FFF74B
:1016E00060FD638D9BB2002B32D02A460A992046BA
:1016F000FFF728FE0028E3D123685A6A636A591C61
:1017000061621A70238D013B9BB22385628D013A81
:1017100092B26285002BE4D1638D9BB2002BE0D0A6
:1017200000950A9B002280212046FFF7C0FD00287B
:101730003BD1638D9BB2FF2BC7D9FF2222850023AB
:1017400000934FF0807331462046FFF72AFDC8E72B
:101750002A460A992046FFF7CEFD034620B1636C66
:10176000042B24D1012316E022682021D1612068B6
:10177000426822F0FF7222F48B3222F4FF7222F0D0
:101780000102426084F84110002284F8422084F86B
:10179000402000E00223184603B0BDE8F083022396
:1017A000F9E70323F7E70323F5E70323F3E703232D
:1017B000F1E700BF0024008090F84130DBB2202B1D
:1017C00024D190F84030012B22D0012380F8403002
:1017D000242380F841300268136823F0010313606A
:1017E0000268136823F48053136002681368194376
:1017F00011600268136843F001031360202380F82E
:101800004130002380F8403018467047022070476E
:101810000220704790F84130DBB2202B22D190F8A3
:101820004030012B20D0012380F84030242380F861
:1018300041300268136823F00103136002681368E3
:1018400023F4706343EA012111600268136843F0D6
:1018500001031360202380F84130002380F84030DA
:10186000184670470220704702207047002800F099
:10187000DB8170B582B00446036813F0010F29D0F4
:10188000A24B9B6803F00C03042B1AD09F4B9B6860
:1018900003F00C03082B0FD06368B3F5803F40D0F2
:1018A000002B54D1994B1A6822F480321A601A68BE
:1018B00022F480221A6039E0944B5B6813F4800FA5
:1018C000EAD0924B1B6813F4003F03D06368002BEF
:1018D00000F0AC81236813F0020F75D08B4B9B682E
:1018E00013F00C0F5ED0894B9B6803F00C03082BA0
:1018F00053D0E368002B00F08A80844A136843F0D9
:1019000001031360FFF7B0FA0546804B1B6813F024
:10191000020F73D1FFF7A8FA401B0228F5D9032064
:1019200087E17A4A136843F48033136063682BB30A
:10193000FFF79AFA0546754B1B6813F4003FC9D1AF
:10194000FFF792FA401B6428F5D9032071E1B3F543
:10195000A02F09D06D4B1A6822F480321A601A68E1
:1019600022F480221A60E1E7684B1A6842F4802270
:101970001A601A6842F480321A60D7E7FFF774FAE7
:101980000546624B1B6813F4003FA3D0FFF76CFAC7
:10199000401B6428F5D903204BE15C4B5B6813F4D2
:1019A000800FA6D1594B1B6813F0020F04D0E368D7
:1019B000012B01D001203CE1544A136823F0F803C5
:1019C000216943EAC1031360236813F0080F46D06E
:1019D000636983B34D4A536F43F001035367FFF7C5
:1019E00043FA0546494B5B6F13F0020F37D1FFF7FF
:1019F0003BFA401B0228F5D903201AE1434A136839
:101A000023F0F803216943EAC1031360DCE73F4A8E
:101A1000136823F001031360FFF726FA05463B4BDA
:101A20001B6813F0020FCFD0FFF71EFA401B0228ED
:101A3000F5D90320FDE0354A536F23F001035367C6
:101A4000FFF712FA0546314B5B6F13F0020F06D019
:101A5000FFF70AFA401B0228F5D90320E9E02368C2
:101A600013F0040F7ED0294B1B6C13F0805F1ED146
:101A7000264B1A6C42F080521A641B6C03F08053A0
:101A80000193019B0125224B1B6813F4807F10D02A
:101A9000A368012B21D0002B3CD11C4B1A6F22F0E4
:101AA00001021A671A6F22F004021A671AE0002571
:101AB000E9E7174A136843F480731360FFF7D4F91A
:101AC0000646134B1B6813F4807FE1D1FFF7CCF976
:101AD000801B6428F5D90320ABE00C4A136F43F058
:101AE00001031367A3685BB3FFF7BEF90646074B14
:101AF0001B6F13F0020F34D1FFF7B6F9801B41F2D0
:101B000088339842F3D9032093E000BF00380240A5
:101B100000700040052B09D0484B1A6F22F00102DB
:101B20001A671A6F22F004021A67DBE7434B1A6F39
:101B300042F004021A671A6F42F001021A67D1E7F5
:101B4000FFF792F906463D4B1B6F13F0020F08D0CA
:101B5000FFF78AF9801B41F288339842F3D90320BA
:101B600067E0F5B9A369002B62D0344A926802F0AD
:101B70000C02082A5FD0022B19D0304A136823F0D8
:101B800080731360FFF770F904462C4B1B6813F049
:101B9000007F47D0FFF768F9001B0228F5D9032022
:101BA00047E0264A136C23F080531364DAE7234A94
:101BB000136823F080731360FFF756F905461F4B37
:101BC0001B6813F0007F06D0FFF74EF9401B022878
:101BD000F5D903202DE0E369226A1343626A43EAE0
:101BE0008213A26A5208013A43EA0243E26A43EAD4
:101BF000026343F00053114A5360136843F080734B
:101C00001360FFF731F904460C4B1B6813F0007F9B
:101C100006D1FFF729F9001B0228F5D9032008E0B7
:101C2000002006E0002004E001207047012000E0D1
:101C3000002002B070BD0120FBE700BF0038024069
:101C4000324B9B6803F00C03042B5CD0082B01D0B3
:101C50002F4870472DE9F04B2C4B5A6802F03F0299
:101C60005B6813F4800F2BD0284B5B68C3F3881399
:101C70001E4600275C010025E41A65EB0705A90153
:101C800041EA9461A001001B61EB0501CB0043EA2E
:101C90005073C400A01943EB07014B0243EAD05331
:101CA0004402204619460023FEF7D0FE174B5B681E
:101CB000C3F3014301335B00B0FBF3F0BDE8F08BED
:101CC000124B5B68C3F388131E4600275C01002596
:101CD000E41A65EB0705A90141EA9461A001001B24
:101CE00061EB0501CB0043EA5073C400A01943EB3C
:101CF00007018B0243EA90538402204619460023D1
:101D0000FEF7A4FED2E70348704700BF0038024048
:101D10000024F40000127A00002800F0A28070B5C0
:101D20000446524B1B6803F00F038B420CD24F4A00
:101D3000136823F00F030B431360136803F00F03C2
:101D40008B4201D0012070BD236813F0020F17D021
:101D500013F0040F04D0464A936843F4E0539360B1
:101D6000236813F0080F04D0414A936843F460439A
:101D700093603F4A936823F0F003A06803439360A5
:101D80000D46236813F0010F31D06368012B20D07A
:101D9000022B25D0364A126812F0020F63D0344964
:101DA0008A6822F0030213438B60FFF75DF8064652
:101DB0002F4B9B6803F00C036268B3EB820F16D0C5
:101DC000FFF752F8801B41F288339842F0D9032084
:101DD000B9E7274A126812F4003FE0D10120B2E7C8
:101DE000234A126812F0007FD9D10120ABE71F4BC4
:101DF0001B6803F00F03AB420CD91C4A136823F095
:101E00000F032B431360136803F00F03AB4201D0A1
:101E1000012098E7236813F0040F06D0144A936852
:101E200023F4E053E1680B439360236813F0080F39
:101E300007D00F4A936823F46043216943EAC10342
:101E40009360FFF7FDFE0A4B9B68C3F30313094A37
:101E5000D35CD840084B18600020FEF7C9FF002073
:101E600071E70120704701206DE700BF003C024090
:101E700000380240C04200080C000020014B1868E6
:101E8000704700BF0C00002008B5FFF7F7FF044BB8
:101E90009B68C3F38223034AD35CD84008BD00BFCC
:101EA00000380240D042000808B5FFF7E7FF044BB6
:101EB0009B68C3F34233034AD35CD84008BD00BFDC
:101EC00000380240D0420008F0B583B004460368F1
:101ED00013F0010F0CD0AF4B9A6822F400029A6005
:101EE0009A68416B0A439A60436BC3B1002600E0D5
:101EF0000026236813F4002F15D0A64AD2F88C30A0
:101F000023F44013E16B0B43C2F88C30E36BB3F561
:101F1000801F06D0002B00F01B81002504E0012665
:101F2000E7E70126F6E70025236813F4801F0FD0AA
:101F3000984AD2F88C3023F44003216C0B43C2F84A
:101F40008C30236CB3F5800F00F0048103B90125B8
:101F5000236813F0807F00D0012613F0200F40F09B
:101F6000FB80236813F0100F0CD08A4BD3F88C2021
:101F700022F08072C3F88C20D3F88C20A16B0A4326
:101F8000C3F88C20236813F4804F08D0814AD2F81C
:101F9000903023F44033616E0B43C2F890302368D5
:101FA00013F4004F08D07B4AD2F8903023F440233A
:101FB000A16E0B43C2F89030236813F4803F08D021
:101FC000744AD2F8903023F44013E16E0B43C2F808
:101FD0009030236813F4003F08D06E4AD2F8903056
:101FE00023F44003216F0B43C2F89030236813F0B1
:101FF000400F08D0674AD2F8903023F00303616C99
:102000000B43C2F89030236813F0800F08D0614A68
:10201000D2F8903023F00C03A16C0B43C2F890303F
:10202000236813F4807F08D05A4AD2F8903023F006
:102030003003E16C0B43C2F89030236813F4007F47
:1020400008D0544AD2F8903023F0C003216D0B43DE
:10205000C2F89030236813F4806F08D04D4AD2F84C
:10206000903023F44073616D0B43C2F890302368C5
:1020700013F4006F08D0474AD2F8903023F440633D
:10208000A16D0B43C2F89030236813F4805F08D031
:10209000404AD2F8903023F44053E16D0B43C2F82C
:1020A0009030236813F4005F08D03A4AD2F8903099
:1020B00023F44043216E0B43C2F89030236813F49D
:1020C000800F08D0334AD2F8903023F08063A16F9C
:1020D0000B43C2F89030236813F4001F0DD02D4A33
:1020E000D2F8903023F00063E16F0B43C2F89030D8
:1020F000E36FB3F1006F00F09980236813F0080FCD
:1021000000D0012513F4802F08D0224AD2F8903055
:1021100023F04073616F0B43C2F89030236813F4CF
:10212000000F09D01B4AD2F8903023F08053D4F826
:1021300080100B43C2F89030002E79D12368B3F1A0
:10214000007F75D0002D40F00681002003B0F0BD67
:102150000125E9E60126F9E60E4B1A6C42F08052A1
:102160001A641B6C03F080530193019B0A4A1368A5
:1021700043F480731360FEF777FE0746064B1B6837
:1021800013F4807F0AD1FEF76FFEC01B6428F5D9D7
:102190000320DBE70038024000700040B34B1B6FA8
:1021A00013F4407315D0226B02F440729A4210D09F
:1021B000AE4B1A6F22F44072196F41F480311967E7
:1021C000196F21F4803119671A671B6F13F0010F23
:1021D00012D1236B03F44072B2F5407F1DD0A34AA5
:1021E000936823F4F8139360A0490B6F226BC2F33A
:1021F0000B0213430B67B4E6FEF736FE07469B4B14
:102200001B6F13F0020FE4D1FEF72EFEC01B41F24C
:1022100088339842F3D9032098E79448826822F4DF
:10222000F812934919400A438260DDE7012564E70B
:102230008E4A136823F080631360FEF715FE06468E
:102240008A4B1B6813F0006F06D0FEF70DFE801B53
:102250006428F5D9032079E7236813F0010F13D020
:10226000636B8BB9814AD2F88430D2F884106068ED
:1022700003F4403343EA801301F070610B43A1681B
:1022800043EA0173C2F88430236813F4002F03D0AB
:10229000E26BB2F5801F06D013F4801F1ED0236CB2
:1022A000B3F5800F1AD1714AD2F88430D2F8841075
:1022B000606803F4403343EA8013E06843EA006354
:1022C00001F0E0410B43C2F88430D2F88C3023F0A7
:1022D0001F03616A01390B43C2F88C30236813F085
:1022E000807F11D0614AD2F88400D2F884106668E9
:1022F00023691B0443EA861300F07060034301F076
:10230000E0410B43C2F88430236813F0007F0DD006
:10231000626823691B0443EA8213E26843EA0263AA
:10232000A26843EA0273514AC2F884304F4A1368E4
:1023300043F080631360FEF797FD06464B4B1B6826
:1023400013F0006F7FF4FEAEFEF78EFD801B642855
:10235000F4D90320FAE6454A136823F0805313604A
:10236000FEF782FD0546414B1B6813F0005F06D067
:10237000FEF77AFD401B6428F5D90320E6E62368C2
:1023800013F4002F01D0E26B22B113F4801F1DD093
:10239000236CDBB9354AD2F88830D2F888106069EE
:1023A00003F4403343EA8013A06943EA006301F079
:1023B000E0410B43C2F88830D2F88C3023F4F85354
:1023C000A16A013943EA0123C2F88C30236813F46F
:1023D000001F03D0E36FB3F1006F31D0236813F017
:1023E000080F19D0214AD2F88810D2F888306069D5
:1023F00003F4403343EA801301F070610B43E16959
:1024000043EA0173C2F88830D2F88C3023F44033A9
:10241000E16A0B43C2F88C30144A136843F08053CE
:102420001360FEF721FD0446104B1B6813F0005F9C
:1024300019D1FEF719FD001B6428F5D9032085E6A4
:102440000A4AD2F88800D2F888106569236A1B040A
:1024500043EA851300F07060034301F0E0410B4351
:10246000C2F88830BAE7002070E600BF00380240AA
:10247000FFFCFF0F10B4036A046A24F00104046235
:10248000846924F0F00444EA021223F00A030B43A7
:10249000826103625DF8044B704710B4036A23F055
:1024A000100303628469036A24F4704444EA02322C
:1024B00023F0A00343EA0113826103625DF8044B39
:1024C0007047836823F0700341F00701194381606E
:1024D00070470268D36843F00103D3600268136851
:1024E00043F0010313600020704770477047704746
:1024F000704710B5044603681A6912F0020F11D034
:10250000DA6812F0020F0DD06FF002021A61012397
:10251000037703689B6913F0030F79D0FFF7E6FF99
:102520000023237723681A6912F0040F12D0DA68A7
:1025300012F0040F0ED06FF004021A610223237709
:1025400023689B6913F4407F68D02046FFF7CEFFD5
:102550000023237723681A6912F0080F12D0DA6873
:1025600012F0080F0ED06FF008021A6104232377CF
:102570002368DB6913F0030F57D02046FFF7B6FF3F
:102580000023237723681A6912F0100F12D0DA683B
:1025900012F0100F0ED06FF010021A61082323778B
:1025A0002368DB6913F4407F46D02046FFF79EFF87
:1025B0000023237723681A6912F0010F03D0DA6829
:1025C00012F0010F3FD123681A6912F0800F03D077
:1025D000DA6812F0800F3DD123681A6912F4807F07
:1025E00003D0DA6812F0800F3BD123681A6912F029
:1025F000400F03D0DA6812F0400F39D123681A690E
:1026000012F0200F03D0DA6812F0200F37D110BD7E
:10261000FFF76BFF2046FFF76AFF81E72046FFF7D1
:1026200064FF2046FFF763FF92E72046FFF75DFF58
:102630002046FFF75CFFA3E72046FFF756FF204642
:10264000FFF755FFB4E76FF001021A61204600F072
:10265000AFFEB8E76FF080021A61204600F079F90A
:10266000BAE76FF080021A61204600F072F9BCE709
:102670006FF040021A612046FFF73AFFBEE76FF0A5
:1026800020021A61204600F063F9C0E770B40368C5
:102690003A4CA04214BF00240124B0F1804F14BF73
:1026A000224644F00102AAB9354DA84214BF0025C4
:1026B0000125344EB0420DD065B905F1804505F5D0
:1026C0008235A84214BF0025012506F50066B042F8
:1026D00000D01DB123F070034D682B43002A33D185
:1026E000274A904214BF00220122264DA8422BD037
:1026F00052BB02F1804202F58232904214BF0022A6
:10270000012205F50065A8421ED0EAB91E4A904292
:1027100014BF0022012205F59A35A84214D09AB9B7
:102720001A4A904214BF0022012205F50065A84212
:102730000AD04AB9164A904214BF00220122A5F5D8
:102740009635A84200D01AB123F44073CA681343E7
:1027500023F080034A69134303608A68C2620A68EF
:1027600082620C4B984214BF234644F001030BB124
:102770000B6903630123436170BC70470000014093
:1027800000080040000400400044014000180040E0
:102790000020004000040140A8B110B5044690F8A4
:1027A0003D305BB1022384F83D30211D2068FFF7E6
:1027B0006DFF012384F83D30002010BD80F83C30CF
:1027C00001F08CF8EEE70120704710B4846824F41F
:1027D0007F4442EA03230B43234383605DF8044BA9
:1027E0007047000090F83C30012B7DD010B50446B6
:1027F000012380F83C30022380F83D300268906865
:102800003A4B034093600B68402B59D010D9702B82
:102810003ED01FD8502B49D0602B32D1CA684968AE
:102820002068FFF73AFE60212068FFF74AFE28E0A3
:10283000102B4FD008D9202B51D0302B21D1302153
:102840002068FFF73EFE1CE0DBB900212068FFF79F
:1028500038FE16E0B3F5805F0ED0B3F5005F10D1FF
:10286000CB684A6889682068FFF7AFFF22689368E1
:1028700043F48043936004E0226891681C4B0B4052
:102880009360012384F83D30002084F83C0010BDA3
:10289000CB684A6889682068FFF797FF22689168CB
:1028A000144B0B4043F077039360EAE7CA6849682A
:1028B0002068FFF7DFFD50212068FFF702FEE0E708
:1028C000CA6849682068FFF7D5FD40212068FFF7F6
:1028D000F8FDD6E710212068FFF7F3FDD1E72021AE
:1028E0002068FFF7EEFDCCE7022070478800FEFF6E
:1028F000F8FFFEFF88FFFEFF90F83C30012B21D04F
:1029000070B4012380F83C3003685A689D680E4E0D
:102910000E4CA34218BFB34203D122F470024C689C
:10292000224322F070020C68224325F0800489685B
:1029300021435A6003689960002380F83C301846B0
:1029400070BC704702207047000001400004014045
:10295000704770472DE9F04105460F4616469846E8
:10296000069C2B68DB6937EA03030CBF01230023B5
:10297000B3421DD1B4F1FF3FF3D02CB1FEF774FA8E
:10298000A0EB0800A042ECD32A68136823F4D073AC
:1029900013602A68936823F001039360202385F86D
:1029A000693085F86A30002385F86830032000E03C
:1029B0000020BDE8F0812DE9F04182B01E4690F87C
:1029C0006930DBB2202B52D104460D469046B2FA54
:1029D00082F35B09002908BF0123002B4CD190F83A
:1029E0006830012B4AD0012380F868300023C36689
:1029F000212380F86930FEF737FA0746A4F85080A3
:102A0000A4F8528003E02A7823689A620135B4F86A
:102A100052309BB2DBB1B4F85230013B9BB2A4F808
:102A2000523000963B46002280212046FFF792FF5D
:102A300030BBA368B3F5805FE5D12369002BE2D1F9
:102A400035F8023B2268C3F308039362DFE7009680
:102A50003B46002240212046FFF77CFF034688B911
:102A6000202284F86920002284F8682000E00223F4
:102A7000184602B0BDE8F0810123F9E70223F7E729
:102A80000323F5E70323F3E710B5044683680269DF
:102A9000134342691343C2691343016808689D4A9E
:102AA000024013430B602268536823F44053E168EB
:102AB0000B435360A369226A1A4321688B6823F48D
:102AC000306313438B602368934A934219D0934A2F
:102AD00093422AD0924A934240D0924A934255D090
:102AE000914A93426AD0914A934200F08280904A80
:102AF000934200F099808F4A934200F0B0801022F8
:102B0000C9E002F59432D2F8902002F00302032AC1
:102B100003D8DFE802F0BF0604081022BBE002225F
:102B2000B9E00422B7E00822B5E002F5FA32D2F8A3
:102B3000902002F00C020C2A08D8DFE802F0BA0755
:102B400007070B070707090707070D001022A2E078
:102B50000222A0E004229EE008229CE002F5F83266
:102B6000D2F8902002F03002102A0DD005D9202A88
:102B700008D0302A04D108228DE00AB900228AE068
:102B8000102288E0022286E0042284E002F5F63278
:102B9000D2F8902002F0C002402A0DD005D9802A38
:102BA00008D0C02A04D1082275E00AB9002272E0D8
:102BB000102270E002226EE004226CE002F5F43292
:102BC000D2F8902002F44072B2F5807F0FD007D97E
:102BD000B2F5007F09D0B2F5407F04D108225AE057
:102BE0000AB9002257E0102255E0022253E00422E5
:102BF00051E002F59232D2F8902002F44062B2F530
:102C0000806F0FD007D9B2F5006F09D0B2F5406FD1
:102C100004D108223FE00AB901223CE010223AE048
:102C2000022238E0042236E002F5E032D2F89020A9
:102C300002F44052B2F5805F0FD007D9B2F5005FC1
:102C400009D0B2F5405F04D1082224E00AB900227D
:102C500021E010221FE002221DE004221BE002F509
:102C6000DE32D2F8902002F44042B2F5804F0FD00D
:102C700007D9B2F5004F09D0B2F5404F04D1082270
:102C800009E00AB9002206E0102204E0022202E074
:102C9000042200E00122E169B1F5004F0BD0082ABF
:102CA00000F29B80DFE802F0616D79998399999930
:102CB0008F000022EFE7082A54D8DFE802F005175A
:102CC00022533F5353534A00FFF7DEF8626853081C
:102CD00003EB4003B3FBF2F39BB2002023F00F029F
:102CE000C3F3420313432268D36010BDFFF7DCF83F
:102CF0006268530803EB4003B3FBF2F39BB200207E
:102D0000ECE762680C4B03EB5203B3FBF2F39BB2AC
:102D10000020E3E7F369FFEF0010014000440040AA
:102D200000480040004C00400050004000140140AA
:102D300000780040007C00400048E801FEF780FF7A
:102D40006268530803EB4003B3FBF2F39BB200202D
:102D5000C4E76268530803F58033B3FBF2F39BB218
:102D60000020BBE701200023B8E7FFF78DF8636878
:102D700000EB5300B0FBF3F0236880B2D860002072
:102D8000B3E7FFF791F8636800EB5300B0FBF3F093
:102D9000236880B2D8600020A7E76168104A02EB80
:102DA0005102B2FBF1F292B2DA6000209DE7FEF729
:102DB00047FF636800EB5300B0FBF3F0236880B279
:102DC000D860002091E761684A0802F50042B2FB32
:102DD000F1F292B2DA60002087E7012085E700BFB8
:102DE0000024F400436A13F0010F06D00268536810
:102DF00023F40033816A0B435360436A13F0020FDC
:102E000006D00268536823F48033C16A0B435360D1
:102E1000436A13F0040F06D00268536823F480233A
:102E2000016B0B435360436A13F0080F06D002682E
:102E3000536823F40043416B0B435360436A13F020
:102E4000100F06D00268936823F48053816B0B4304
:102E50009360436A13F0200F06D00268936823F44E
:102E60000053C16B0B439360436A13F0400F0AD0C9
:102E70000268536823F48013016C0B435360036CA6
:102E8000B3F5801F0BD0436A13F0800F06D00268A1
:102E9000536823F40023816C0B435360704702682E
:102EA000536823F4C003416C0B435360EBE710B548
:102EB00082B004460023C366FDF7D6FF226812687D
:102EC00012F0080F09D1202384F8693084F86A30A1
:102ED000002084F8680002B010BD6FF07E430093BC
:102EE000034600224FF400112046FFF733FD00286F
:102EF000E9D00320EFE778B310B5044690F86930C5
:102F00000BB3242384F869302268136823F001038B
:102F100013602046FFF7B8FD012813D0636ABBB9E0
:102F20002268536823F4904353602268936823F027
:102F30002A0393602268136843F00103136020465C
:102F4000FFF7B5FF10BD80F8683000F0E7FCD8E768
:102F50002046FFF747FFE3E70120704710B58AB02E
:102F60001B4B1A6B42F004021A631A6B02F0040244
:102F70000192019A1A6B42F080021A631A6B02F0F6
:102F800080020292029A1A6B42F002021A631A6BD2
:102F900002F002020392039A1A6B42F008021A63CB
:102FA0001B6B03F008030493049B0A4C00220121CD
:102FB0002046FEF7DFF801230593069300230793CD
:102FC000089305A92046FDF7E5FF0AB010BD00BF34
:102FD00000380240000402402DE9F04184B005466B
:102FE0001746984604AA02F8011D0A4C0A260096C4
:102FF000012300F0FE012046FEF74EFA00964346FC
:103000003A4645F001012046FEF70EFB04B0BDE84C
:10301000F08100BF5801002000B583B0022301AA4F
:10302000014607480078FFF7D7FF9DF804301B02E0
:103030001BB29DF80500184303B05DF804FB00BF08
:103040000800002000B583B0022301AA014606480B
:103050000078FFF7C1FF9DF804009DF8053043EAB2
:10306000002003B05DF804FB0800002038B5AA205A
:10307000FFF7D2FF154C2080AC20FFF7CDFF60801A
:10308000AE20FFF7C9FFA080B020FFF7DBFF104D97
:103090002880B220FFF7D6FF6880B420FFF7D2FF68
:1030A000A880B620FFF7B8FFE080B820FFF7B4FF94
:1030B0002081BA20FFF7B0FF6081BC20FFF7ACFF92
:1030C000A081BE20FFF7A8FFE08138BD48010020A5
:1030D0002402002000B583B0012301AAD0210448B6
:1030E0000078FFF779FFFFF7C1FF03B05DF804FB3D
:1030F0000800002000B585B08DF80C108DF80D206B
:103100000A230093022303AA00F0FE010248FEF7FF
:10311000C3F905B05DF804FB5801002030B583B059
:10312000154640EA8112D2B2F4211D4B1878FFF700
:10313000E1FF00240134E4B20120FDF79BFE0123EE
:1031400001AAF42116480078FFF746FF1D2C23D86A
:103150009DF8043013F0200FECD12B4601AAF62184
:103160000F480078FFF738FF022D03D0032D08D059
:10317000002012E09DF804309DF8050040EA03208D
:103180000BE09DF804309DF80500000240EA034082
:103190009DF80630184300E0002003B030BD00BFAA
:1031A0000800002010B582B0012301AA0F210B48AE
:1031B0000078FFF711FF9DF80430322B01D002B0E8
:1031C00010BD064C272220212078FFF793FF002214
:1031D00023212078FFF78EFFF1E700BF9800002041
:1031E00000B589B0012908D0002264236946064849
:1031F000FFF7E1FB09B05DF804FB024603496846AE
:1032000000F040FCC2B2F0E7D8000020D84200082D
:10321000F0B52DED028B8FB00546B5EEC00AF1EE8C
:1032200010FA3ED4334FB5EEC00AF1EE10FA3AD49C
:10323000BDEEC08AF8EEC87A30EE670ADFED2E7A6E
:1032400020EE270ABCEEC00A10EE103A9CB2542DB4
:103250002CD08DF8085020238DF809303A228DF8B3
:103260000A208DF80B304FF47A73042202A9234808
:10327000FFF7A1FB542D29D05A2D31D0009418EE20
:10328000103A3A461E4906A800F0FCFBC2B24FF4C1
:103290007A7306A91948FFF78EFB0FB0BDEC028BBD
:1032A000F0BD184FBFE7B1EE400AC1E7164B02AEC2
:1032B0000FCB07C626F8023B1B0C33704FF47A7312
:1032C0000F2202A90D48FFF776FBD3E7009418EE12
:1032D000103A3A460D4906A800F0D4FBC2B2D6E730
:1032E000009418EE103A3A46094906A800F0CAFBC5
:1032F000C2B2CCE7F04200080000C842D80000206B
:1033000010430008EC4200081C430008F442000887
:1033100004430008F8B5254C0623221DA821207877
:10332000FFF75AFE6379207940EA032000B26081FA
:10333000E379A67946EA032636B2A681637A257A2E
:1033400045EA03252DB2E5814000FDF7B3F80022E0
:103350004FF07C53FDF718F9FDF728FB0746206175
:103360007000FDF7A7F800224FF07C53FDF70CF931
:10337000FDF71CFB60616800FDF79CF800224FF030
:103380007C53FDF701F9FDF711FBA061582000EE19
:10339000107AFFF73DFF592094ED050AFFF738FF3B
:1033A0005A2094ED060AFFF733FFF8BD980000207D
:1033B00008B50268034B9A4200D008BDFFF7AAFF88
:1033C000FBE700BF0004004038B5022200212E2098
:1033D000FFF7A4FE00B938BD3F498A88821A4B889E
:1033E00003FB02F3DB133D49B1F90C20D202B1F922
:1033F0000E401C4492FBF4F29C1804F108000011EA
:10340000FDF758F832A3D3E90023FDF7BDF8FDF727
:10341000CDFA00EE100A5420FFF7FAFE0322002135
:103420003420FFF77BFE0028D5D00012A4F57A6285
:103430002A4DB5F9081002FB02F31C1304FB01F33B
:10344000B5F9021002FB01F1C91201EBE321B5F954
:10345000003001EB8301023134D4204DB5F9043042
:1034600002FB03F2B5F9063003FB04F31B1403EB74
:10347000623302339B10184A128803F5004303FBA2
:1034800002F3DB0BA0EBA10141F2883000FB01F05D
:10349000002819DB4000B0FBF3F3181200FB00F02A
:1034A00040F6DE3202FB00F20D4800FB03F0001490
:1034B00000EB224000F6CF60012103EB2010FFF764
:1034C0008FFE88E70331C8E7B0FBF3F35B00E4E766
:1034D0009A9999999999B93F2402002048010020AE
:1034E00043E3FFFFFEE7000008B51648164B0360F4
:1034F000164B4360002383600122C2600361436175
:103500008361C3610362FDF769FF58B94FF48051CD
:103510000C48FEF751F950B900210A48FEF77AF934
:1035200050B908BD4FF489710948FFF7DBFF40F23D
:1035300019110748FFF7D6FF4FF490710448FFF7C1
:10354000D1FF00BF5801002000540040411330005B
:103550002C43000808B50C480C4B03604FF4E133D2
:10356000436000238360C36003610C224261836176
:10357000C36103624362FFF7BEFC00B908BD40F2BD
:1035800077110348FFF7AEFFD80000200048004045
:103590002C43000800B589B01848194B03604BF65E
:1035A00080334360002383606422C26003618361CF
:1035B000FFF7F2F898B908A94FF4805341F8103D8D
:1035C0000E48FFF70FF978B900230193039301A97F
:1035D0000A48FFF791F960B909B05DF804FB4FF4B0
:1035E0009A710848FFF77EFF4FF49D710548FFF779
:1035F00079FF40F241110348FFF774FFE401002016
:10360000000400402C43000800B589B019481A4B4B
:1036100003604BF680334360002383604FF47A727B
:10362000C26003618361FFF7B7F898B908A94FF446
:10363000805341F8103D0F48FFF7D4F878B90023C4
:103640000193039301A90B48FFF756F960B909B03C
:103650005DF804FB40F255110848FFF743FF40F2C4
:103660005B110648FFF73EFF4FF4B1710348FFF7C7
:1036700039FF00BFA4010020000C00402C430008CB
:1036800000B5B5B0314B1A6C42F080521A641B6C15
:1036900003F080530093009B2D4A136823F44043AA
:1036A00043F480431360136803F440430193019B88
:1036B000012328934FF48033299302232E934FF450
:1036C00080022F92042230924822319232930323B7
:1036D000339328A8FEF7CAF858BB0F23239302217F
:1036E0002491002325934FF480522692279323A8F8
:1036F000FEF712FB08BB4FF482430293002315939D
:103700001B9302A8FEF7E0FBD8B9FEF7B7FB114BFD
:10371000A3FB00308009FDF711FC0420FDF724FC19
:10372000002211464FF0FF30FDF7CAFB35B05DF8BF
:1037300004FBDE210848FFF7D5FEEC210648FFF721
:10374000D1FEF4210448FFF7CDFE00BF003802404F
:1037500000700040D34D62102C43000808B5224B86
:103760005B785B00214C2370FDF766FBFFF788FF59
:10377000FFF7F4FBFFF7B8FEFFF7ECFEFFF70AFFD9
:10378000FFF742FF1A48FEF7A4FEFDF76DFB194A4A
:10379000A2FB00239B09002523626562FDF764FB01
:1037A000A062E562FFF796FCFFF7FCFCFDF75CFB0F
:1037B000104AA2FB0032920900250C49D1E9080108
:1037C000121A65EB0103002B08BF0A2AEED3FFF79C
:1037D000FBFDFDF749FB074BA3FB00308009034BC2
:1037E000186200225A62E1E70800002098000020D9
:1037F000E4010020D34D621000B583B0214B1A6C58
:1038000042F080521A641A6C02F080520092009AC0
:103810005A6C42F480425A645B6C03F48043019317
:10382000019B0320FDF73AFB002211466FF00B00CD
:10383000FDF746FB002211466FF00A00FDF740FB42
:10384000002211466FF00900FDF73AFB00221146F5
:103850006FF00400FDF734FB002211466FF0030007
:10386000FDF72EFB002211466FF00100FDF728FB4B
:10387000002211464FF0FF30FDF722FB03B05DF848
:1038800004FB00BF003802400268114B9A4200D08E
:10389000704700B587B04FF4407301931223029331
:1038A0000123039303230493042305930DEB0301E6
:1038B0000848FDF76FFB084B1A6C42F400121A64BB
:1038C0001B6C03F400130093009B07B05DF804FB2E
:1038D00000540040000402400038024002680E4BD1
:1038E0009A4200D0704700B583B003F50D331A6CCF
:1038F00042F002021A641B6C03F002030193019B65
:10390000002211461D20FDF7DBFA1D20FDF70AFB02
:1039100003B05DF804FB00BF000400400268114BD7
:103920009A4200D0704700B587B003F5F8331A6C9F
:1039300042F480221A641B6C03F480230093009BE2
:103940004FF4407301930223029300230393032354
:1039500004930723059301A90348FDF71BFB07B058
:103960005DF804FB00480040000C02407047FEE791
:10397000FEE7FEE7FEE770477047704708B5FDF7C2
:1039800067FAFDF702FB08BD08B50248FEF7B1FD76
:1039900008BD00BFE401002010B40F4AD2F88830FF
:1039A00043F47003C2F888300C4B196841F00101F0
:1039B0001960002098601C68094921401960094974
:1039C0005960196821F480211960D8604FF00063B4
:1039D00093605DF8044B704700ED00E00038024052
:1039E000FFFFF6FE10300024DFF834D0002103E0A2
:1039F0000C4B5B58435004310B480C4B42189A4215
:103A0000F6D30B4A02E0002342F8043B094B9A42EA
:103A1000F9D3FFF7C1FF00F011F8FFF79FFE7047E1
:103A200000000520804300080000002074000020F2
:103A30007800002030020020FEE7000070B50D4E37
:103A40000D4CA41BA4100025A54209D10B4E0C4C13
:103A500000F02AFCA41BA4100025A54205D170BDCE
:103A600056F8253098470135EEE756F82530984747
:103A70000135F2E7784300087843000878430008EE
:103A80007C4300080EB400B59CB01DAB02900690BC
:103A90006FF00041094807910491094953F8042B3C
:103AA00005910068019302A900F066F8029B0022CC
:103AB0001A701CB05DF804EB03B0704710000020D2
:103AC0000802FFFF2DE9F0478E689E4282460C46B1
:103AD0009046994637D88A8912F4906F31D025687C
:103AE00009696F1A6569022305EB450595FBF3F536
:103AF00009F101033B449D4238BF1D46530530D5B3
:103B0000294600F029FB064650B90C23CAF80030BC
:103B1000A38943F04003A3814FF0FF30BDE8F08755
:103B20003A46216900F0A6FAA38923F4906343F092
:103B30008003A381266165613E44ED1B2660A5607C
:103B40004E464E4500D94E4632464146206800F06A
:103B50009CFAA3689B1BA36023681E442660002078
:103B6000DCE72A4600F052FB06460028E2D1216934
:103B7000504600F0A3FAC8E72DE9F04F9DB080460B
:103B800003938B891D060C4616460FD50B696BB93E
:103B9000402100F0E1FA2060206128B90C23C8F828
:103BA00000304FF0FF30C7E04023636100230993EA
:103BB00020238DF8293030238DF82A304FF0010B67
:103BC00037463D4615F8013B0BB1252B3ED1B7EBEF
:103BD000060A0BD05346324621464046FFF772FF95
:103BE000013000F0A480099B534409933B78002BDB
:103BF00000F09D8000234FF0FF32CDE905230493B0
:103C000007938DF853301A932F46052217F8011B9E
:103C10004F48FDF79DF8049BD0B9D90644BF202238
:103C20008DF853201A0744BF2B228DF853202A7891
:103C30002A2A15D0079A2F4600200A25394611F85E
:103C4000013B303B092B4DD9B8B10FE02F46B8E707
:103C50003F4A801A0BFA00F0184304903D46D3E720
:103C6000039A111D12680391002A01DB079204E0F8
:103C7000524243F00203079204933B782E2B0CD15F
:103C80007B782A2B33D1039B1A1D1B680392002BD0
:103C9000B8BF4FF0FF33023705932E4D397803221A
:103CA0002846FDF755F838B14023401B03FA00F0D1
:103CB000049B034301370493397827488DF8281073
:103CC00006227E1CFDF744F8002838D0234B13BB96
:103CD000039B073323F0070308330393099B4B44EB
:103CE00009936DE705FB023201200F46A6E700238A
:103CF0000137059319460A25384610F8012B303A4A
:103D0000092A03D9002BC8D00591C6E705FB01217C
:103D100001230746F0E703AB00932246104B04A9AA
:103D20004046AFF30080B0F1FF3F8146D6D1A38972
:103D30005B063FF536AF09981DB0BDE8F08F03ABC9
:103D400000932246064B04A9404600F081F8EAE7BA
:103D50003C430008424300084643000800000000BE
:103D6000C53A00082DE9F04791461F468A680B695D
:103D7000DDF820809342B8BF1346C9F8003091F8AF
:103D8000432006460C4612B10133C9F800302368BF
:103D9000990642BFD9F800300233C9F800302568CF
:103DA00015F0060507D104F1190AE368D9F80020D7
:103DB0009B1AAB4228DC94F843302268003318BFCA
:103DC000012392062DD404F1430239463046C04700
:103DD000013020D02368E568D9F8002003F00603FD
:103DE000042B08BFAD1AA36822690CBF25EAE5754C
:103DF00000259342C4BF9B1AED184FF000091A34F6
:103E00004D451AD1002008E001235246394630467C
:103E1000C047013003D14FF0FF30BDE8F0870135D6
:103E2000C3E7E1185A1C302081F84300224494F87B
:103E3000451082F843100233C5E701232246394674
:103E40003046C0470130E6D009F10109D8E700004B
:103E50002DE9F04301F1430C0C46097E85B06E2933
:103E60001746064698460C9A00F0B38022D863297C
:103E700036D00AD8002900F0B980582900F0838094
:103E800004F1420584F8421032E0642901D0692926
:103E9000F6D120681368050603F104012AD51B68D2
:103EA0001160002B03DA2D225B4284F843206F4817
:103EB0000A2239E0732900F09D8008D86F2920D0AC
:103EC0007029DDD1236843F02003236003E07529C6
:103ED00017D07829D4D1782384F84530644855E048
:103EE0001368191D1B68116004F1420584F8423003
:103EF00001238CE01B68116010F0400F18BF1BB24B
:103F0000CFE713682568181D1060280601D51B68C7
:103F100002E06806FBD51B8854486F2914BF0A22AB
:103F20000822002184F843106568A560002DC0F2C6
:103F30009580216821F004012160002B3DD1002DE6
:103F400040F08E806546082A0BD12368DB0708D530
:103F5000236962689A42DEBF302305F8013C05F10F
:103F6000FF35ACEB05032361CDF800803B4603AA87
:103F700021463046FFF7F6FE01304DD14FF0FF30BD
:103F800005B0BDE8F083394884F84510136821680E
:103F90001D1D1B6815600A060BD5CA0744BF41F0FA
:103FA000200121601BB9226822F020022260102229
:103FB000B7E74D0648BF9BB2EFE76546B3FBF2F1AA
:103FC00002FB1133C35C05F8013D0B460029F5D116
:103FD000B9E7136825686169181D106028061B6819
:103FE00001D5196002E06A06FBD519800023236120
:103FF0006546B9E71368191D11601D6862680021E4
:104000002846FCF7A5FE08B1401B60606368236189
:10401000002384F84330A7E723692A46394630460F
:10402000C0470130AAD023689B0713D4E068039BE4
:104030009842B8BF1846A3E701234A46394630469E
:10404000C04701309AD00135E368039A9B1AAB420E
:10405000F2DCEBE7002504F11909F5E7002BACD100
:10406000037884F8423004F142056CE74D430008C0
:104070005E43000810B5431E0A44914200D110BDB2
:1040800011F8014B03F8014FF7E7884210B501EB37
:10409000020307D8421E99420AD011F8014B02F8D8
:1040A000014FF8E78342F5D98118D21AD34200D1E3
:1040B00010BD13F8014D01F8014DF7E738B505467D
:1040C000002945D051F8043C0C1F002BB8BFE41860
:1040D00000F0D2F81F4A1368104633B963601460C9
:1040E0002846BDE8384000F0C8B8A3420CD9216882
:1040F0006218934204BF1A685B68636004BF521879
:1041000022600460ECE713465A680AB1A242FAD969
:1041100019685818A0420BD12068014458188242EF
:104120001960DDD1106852685A6001441960D7E700
:1041300002D90C232B60D3E7206821188A4204BFE0
:1041400011685268626004BF091821605C60C7E7AB
:1041500038BD00BFC800002070B5CD1C25F0030598
:1041600008350C2D38BF0C25002D064601DBA94271
:1041700003D90C233360002070BD00F07DF8214A84
:104180001468214691B9204C23681BB9304600F0D1
:1041900063F820602946304600F05EF8431C24D1C5
:1041A0000C233360304600F068F8E4E70B685B1BD3
:1041B00018D40B2B0FD90B60CD50CC18304600F023
:1041C0005CF804F10B00231D20F00700C31AD3D0C4
:1041D0005A42E250D0E78C424B6816BF63601360CE
:1041E0000C46EBE70C464968CCE7C41C24F00304FA
:1041F000A04205D0211A304600F02EF80130CFD071
:104200002560DBE7C8000020CC000020F8B5074699
:1042100014460E4621B91146BDE8F840FFF79CBF91
:1042200022B9FFF74BFF25462846F8BD00F026F8D7
:10423000A0420FD221463846FFF78EFF05460028E0
:10424000F2D031462246FFF715FF31463846FFF7D8
:1042500035FFE9E73546E7E738B5064C0023054664
:104260000846236000F012F8431C02D1236803B112
:104270002B6038BD2C0200207047704751F8043C79
:10428000181F002BBCBF0B58C0187047044A0549C3
:104290001368002B08BF0B4618441060184670477F
:1042A000D000002030020020F8B500BFF8BC08BCE8
:1042B0009E467047F8B500BFF8BC08BC9E467047E4
:1042C00000000000000000000102030406070809C6
:1042D000000000000102030450726573737572657B
:1042E000203A2025642050610D0A00002D000000B6
:1042F00000000000257325642E253032642064659B
:1043000067430900257325642E253032640D0A00A9
:10431000257325642E2530326409000054656D70C4
:1043200065726174757265203A2000002E2E2F533D
:1043300072632F6D61696E2E63000000232D302B98
:104340002000686C4C006566674546470030313296
:1043500033343536373839414243444546003031ED
:10436000323334353637383961626364656600004C
:084370000CC7FF7F01000000F3
:04437800F501000843
:04437C00D101000863
:104380000100000010000000EE1800000024F400FE
:1043900014000020000000000000000000000000E9
:1043A000000000000000000000000000000000000D
:1043B00000000000000000000000000000000000FD
:1043C00000000000000000000000000000000000ED
:1043D00000000000000000000000000000000000DD
:1043E00000000000000000000000000000000000CD
:0443F00000000000C9
:04000005080039E9CD
:00000001FF
